{
  "contractName": "CoralMarketContract",
  "abi": [
    {
      "anonymous": false,
      "inputs": [
        {
          "indexed": false,
          "internalType": "uint256",
          "name": "id",
          "type": "uint256"
        },
        {
          "indexed": false,
          "internalType": "uint256",
          "name": "tokenId",
          "type": "uint256"
        },
        {
          "indexed": false,
          "internalType": "address",
          "name": "tokenAddress",
          "type": "address"
        },
        {
          "indexed": false,
          "internalType": "uint256",
          "name": "askingPrice",
          "type": "uint256"
        }
      ],
      "name": "itemAdded",
      "type": "event"
    },
    {
      "anonymous": false,
      "inputs": [
        {
          "indexed": false,
          "internalType": "uint256",
          "name": "id",
          "type": "uint256"
        },
        {
          "indexed": false,
          "internalType": "address",
          "name": "buyer",
          "type": "address"
        },
        {
          "indexed": false,
          "internalType": "uint256",
          "name": "askingPrice",
          "type": "uint256"
        }
      ],
      "name": "itemSold",
      "type": "event"
    },
    {
      "inputs": [
        {
          "internalType": "uint256",
          "name": "",
          "type": "uint256"
        }
      ],
      "name": "itemsForSale",
      "outputs": [
        {
          "internalType": "uint256",
          "name": "id",
          "type": "uint256"
        },
        {
          "internalType": "address",
          "name": "tokenAddress",
          "type": "address"
        },
        {
          "internalType": "uint256",
          "name": "tokenId",
          "type": "uint256"
        },
        {
          "internalType": "address payable",
          "name": "seller",
          "type": "address"
        },
        {
          "internalType": "uint256",
          "name": "askingPrice",
          "type": "uint256"
        },
        {
          "internalType": "bool",
          "name": "isSold",
          "type": "bool"
        }
      ],
      "stateMutability": "view",
      "type": "function",
      "constant": true
    },
    {
      "inputs": [
        {
          "internalType": "uint256",
          "name": "tokenId",
          "type": "uint256"
        },
        {
          "internalType": "address",
          "name": "tokenAddress",
          "type": "address"
        },
        {
          "internalType": "uint256",
          "name": "askingPrice",
          "type": "uint256"
        }
      ],
      "name": "addItemToMarket",
      "outputs": [
        {
          "internalType": "uint256",
          "name": "",
          "type": "uint256"
        }
      ],
      "stateMutability": "nonpayable",
      "type": "function"
    },
    {
      "inputs": [
        {
          "internalType": "uint256",
          "name": "id",
          "type": "uint256"
        }
      ],
      "name": "buyItem",
      "outputs": [],
      "stateMutability": "payable",
      "type": "function",
      "payable": true
    }
  ],
  "bytecode": "0x608060405234801561001057600080fd5b5061110b806100206000396000f3fe6080604052600436106100345760003560e01c8063092d0afc146100395780634abc22021461007b578063e7fb74c7146100b8575b600080fd5b34801561004557600080fd5b50610060600480360381019061005b9190610c1a565b6100d4565b60405161007296959493929190610cd3565b60405180910390f35b34801561008757600080fd5b506100a2600480360381019061009d9190610d60565b61016d565b6040516100af9190610db3565b60405180910390f35b6100d260048036038101906100cd9190610c1a565b6105cc565b005b600081815481106100e457600080fd5b90600052602060002090600602016000915090508060000154908060010160009054906101000a900473ffffffffffffffffffffffffffffffffffffffff16908060020154908060030160009054906101000a900473ffffffffffffffffffffffffffffffffffffffff16908060040154908060050160009054906101000a900460ff16905086565b6000828460008290503373ffffffffffffffffffffffffffffffffffffffff168173ffffffffffffffffffffffffffffffffffffffff16636352211e846040518263ffffffff1660e01b81526004016101c69190610db3565b602060405180830381865afa1580156101e3573d6000803e3d6000fd5b505050506040513d601f19601f820116820180604052508101906102079190610de3565b73ffffffffffffffffffffffffffffffffffffffff161461022757600080fd5b858760008290503073ffffffffffffffffffffffffffffffffffffffff168173ffffffffffffffffffffffffffffffffffffffff1663081812fc846040518263ffffffff1660e01b815260040161027e9190610db3565b602060405180830381865afa15801561029b573d6000803e3d6000fd5b505050506040513d601f19601f820116820180604052508101906102bf9190610de3565b73ffffffffffffffffffffffffffffffffffffffff16146102df57600080fd5b60001515600160008b73ffffffffffffffffffffffffffffffffffffffff1673ffffffffffffffffffffffffffffffffffffffff16815260200190815260200160002060008c815260200190815260200160002060009054906101000a900460ff16151514610383576040517f08c379a000000000000000000000000000000000000000000000000000000000815260040161037a90610e6d565b60405180910390fd5b60008080549050905060006040518060c001604052808381526020018c73ffffffffffffffffffffffffffffffffffffffff1681526020018d81526020013373ffffffffffffffffffffffffffffffffffffffff1681526020018b81526020016000151581525090806001815401808255809150506001900390600052602060002090600602016000909190919091506000820151816000015560208201518160010160006101000a81548173ffffffffffffffffffffffffffffffffffffffff021916908373ffffffffffffffffffffffffffffffffffffffff1602179055506040820151816002015560608201518160030160006101000a81548173ffffffffffffffffffffffffffffffffffffffff021916908373ffffffffffffffffffffffffffffffffffffffff1602179055506080820151816004015560a08201518160050160006101000a81548160ff021916908315150217905550505060018060008c73ffffffffffffffffffffffffffffffffffffffff1673ffffffffffffffffffffffffffffffffffffffff16815260200190815260200160002060008d815260200190815260200160002060006101000a81548160ff021916908315150217905550806000828154811061055e5761055d610e8d565b5b9060005260206000209060060201600001541461057e5761057d610ebc565b5b7fd3742413e0092c98517699ed9f8567218c740a5a265a7a986d9430d597937522818c8c8c6040516105b39493929190610eeb565b60405180910390a1809750505050505050509392505050565b8060008054905081108015610605575080600082815481106105f1576105f0610e8d565b5b906000526020600020906006020160000154145b610644576040517f08c379a000000000000000000000000000000000000000000000000000000000815260040161063b90610f7c565b60405180910390fd5b81600015156000828154811061065d5761065c610e8d565b5b906000526020600020906006020160050160009054906101000a900460ff161515146106be576040517f08c379a00000000000000000000000000000000000000000000000000000000081526004016106b590610f7c565b60405180910390fd5b600083815481106106d2576106d1610e8d565b5b906000526020600020906006020160010160009054906101000a900473ffffffffffffffffffffffffffffffffffffffff166000848154811061071857610717610e8d565b5b90600052602060002090600602016002015460008290503073ffffffffffffffffffffffffffffffffffffffff168173ffffffffffffffffffffffffffffffffffffffff1663081812fc846040518263ffffffff1660e01b815260040161077f9190610db3565b602060405180830381865afa15801561079c573d6000803e3d6000fd5b505050506040513d601f19601f820116820180604052508101906107c09190610de3565b73ffffffffffffffffffffffffffffffffffffffff16146107e057600080fd5b600086815481106107f4576107f3610e8d565b5b906000526020600020906006020160040154341015610848576040517f08c379a000000000000000000000000000000000000000000000000000000000815260040161083f90610fe8565b60405180910390fd5b6000868154811061085c5761085b610e8d565b5b906000526020600020906006020160030160009054906101000a900473ffffffffffffffffffffffffffffffffffffffff1673ffffffffffffffffffffffffffffffffffffffff163373ffffffffffffffffffffffffffffffffffffffff1614156108c657600080fd5b6001600087815481106108dc576108db610e8d565b5b906000526020600020906006020160050160006101000a81548160ff021916908315150217905550600015156001600080898154811061091f5761091e610e8d565b5b906000526020600020906006020160010160009054906101000a900473ffffffffffffffffffffffffffffffffffffffff1673ffffffffffffffffffffffffffffffffffffffff1673ffffffffffffffffffffffffffffffffffffffff16815260200190815260200160002060008089815481106109a05761099f610e8d565b5b906000526020600020906006020160020154815260200190815260200160002060009054906101000a90505050600086815481106109e1576109e0610e8d565b5b906000526020600020906006020160010160009054906101000a900473ffffffffffffffffffffffffffffffffffffffff1673ffffffffffffffffffffffffffffffffffffffff166342842e0e60008881548110610a4257610a41610e8d565b5b906000526020600020906006020160030160009054906101000a900473ffffffffffffffffffffffffffffffffffffffff163360008a81548110610a8957610a88610e8d565b5b9060005260206000209060060201600201546040518463ffffffff1660e01b8152600401610ab993929190611067565b600060405180830381600087803b158015610ad357600080fd5b505af1158015610ae7573d6000803e3d6000fd5b5050505060008681548110610aff57610afe610e8d565b5b906000526020600020906006020160030160009054906101000a900473ffffffffffffffffffffffffffffffffffffffff1673ffffffffffffffffffffffffffffffffffffffff166108fc349081150290604051600060405180830381858888f19350505050158015610b76573d6000803e3d6000fd5b507f8164c6f8917e418c49813e4586897c7067de5a886aa1bea980cd11fa57d48264863360008981548110610bae57610bad610e8d565b5b906000526020600020906006020160040154604051610bcf9392919061109e565b60405180910390a1505050505050565b600080fd5b6000819050919050565b610bf781610be4565b8114610c0257600080fd5b50565b600081359050610c1481610bee565b92915050565b600060208284031215610c3057610c2f610bdf565b5b6000610c3e84828501610c05565b91505092915050565b610c5081610be4565b82525050565b600073ffffffffffffffffffffffffffffffffffffffff82169050919050565b6000610c8182610c56565b9050919050565b610c9181610c76565b82525050565b6000610ca282610c56565b9050919050565b610cb281610c97565b82525050565b60008115159050919050565b610ccd81610cb8565b82525050565b600060c082019050610ce86000830189610c47565b610cf56020830188610c88565b610d026040830187610c47565b610d0f6060830186610ca9565b610d1c6080830185610c47565b610d2960a0830184610cc4565b979650505050505050565b610d3d81610c76565b8114610d4857600080fd5b50565b600081359050610d5a81610d34565b92915050565b600080600060608486031215610d7957610d78610bdf565b5b6000610d8786828701610c05565b9350506020610d9886828701610d4b565b9250506040610da986828701610c05565b9150509250925092565b6000602082019050610dc86000830184610c47565b92915050565b600081519050610ddd81610d34565b92915050565b600060208284031215610df957610df8610bdf565b5b6000610e0784828501610dce565b91505092915050565b600082825260208201905092915050565b7f4974656d20697320616c726561647920757020666f722073616c652100000000600082015250565b6000610e57601c83610e10565b9150610e6282610e21565b602082019050919050565b60006020820190508181036000830152610e8681610e4a565b9050919050565b7f4e487b7100000000000000000000000000000000000000000000000000000000600052603260045260246000fd5b7f4e487b7100000000000000000000000000000000000000000000000000000000600052600160045260246000fd5b6000608082019050610f006000830187610c47565b610f0d6020830186610c47565b610f1a6040830185610c88565b610f276060830184610c47565b95945050505050565b7f436f756c64206e6f742066696e64206974656d00000000000000000000000000600082015250565b6000610f66601383610e10565b9150610f7182610f30565b602082019050919050565b60006020820190508181036000830152610f9581610f59565b9050919050565b7f4e6f7420656e6f7567682066756e64732073656e740000000000000000000000600082015250565b6000610fd2601583610e10565b9150610fdd82610f9c565b602082019050919050565b6000602082019050818103600083015261100181610fc5565b9050919050565b6000819050919050565b600061102d61102861102384610c56565b611008565b610c56565b9050919050565b600061103f82611012565b9050919050565b600061105182611034565b9050919050565b61106181611046565b82525050565b600060608201905061107c6000830186611058565b6110896020830185610c88565b6110966040830184610c47565b949350505050565b60006060820190506110b36000830186610c47565b6110c06020830185610c88565b6110cd6040830184610c47565b94935050505056fea2646970667358221220b83572c1030c1ca1ca3719500136ec2d17543e40a8cb85cc77379d84f5f03aa564736f6c634300080a0033",
  "immutableReferences": {},
  "source": "// SPDX-License-Identifier: GPL-3.0\npragma solidity ^0.8.0;\n\nimport \"../node_modules/@openzeppelin/contracts/token/ERC721/IERC721.sol\";\n\ncontract CoralMarketContract {\n\n    // Need to add functionality for bidding on items\n    // Need to add functionality for seller to wirthdraw an item from the marketplace\n\n    struct AuctionItem {\n        uint256 id;\n        address tokenAddress;\n        uint256 tokenId;\n        address payable seller;\n        uint256 askingPrice;\n        bool isSold;\n    }\n\n    AuctionItem[] public itemsForSale;\n    mapping(address => mapping(uint256 => bool)) activeItems;\n\n    event itemAdded(uint256 id, uint256 tokenId, address tokenAddress, uint256 askingPrice);\n    event itemSold(uint256 id, address buyer, uint256 askingPrice);\n\n    modifier OnlyItemOwner(address tokenAddress, uint256 tokenId){\n        IERC721 tokenContract = IERC721(tokenAddress);\n        require(tokenContract.ownerOf(tokenId) == msg.sender);\n        _;\n    }\n\n    modifier HasTransferApproval(address tokenAddress, uint256 tokenId){\n        IERC721 tokenContract = IERC721(tokenAddress);\n        require(tokenContract.getApproved(tokenId) == address(this));\n        _;\n    }\n\n    modifier ItemExists(uint256 id){\n        require(id < itemsForSale.length && itemsForSale[id].id == id, \"Could not find item\" );\n        _;\n    }\n\n    modifier IsForSale(uint256 id){\n        require(itemsForSale[id].isSold == false, \"Could not find item\" );\n        _;\n    }\n\n    function addItemToMarket(uint256 tokenId, address tokenAddress, uint256 askingPrice) OnlyItemOwner(tokenAddress, tokenId) HasTransferApproval(tokenAddress, tokenId) external returns(uint256){\n        require(activeItems[tokenAddress][tokenId] ==  false, \"Item is already up for sale!\");\n        uint256 newItemId = itemsForSale.length;\n        itemsForSale.push(AuctionItem(newItemId, tokenAddress, tokenId, payable(msg.sender), askingPrice, false));\n        activeItems[tokenAddress][tokenId] = true;\n\n        assert(itemsForSale[newItemId].id == newItemId);\n        emit itemAdded(newItemId, tokenId, tokenAddress, askingPrice);\n        return newItemId;\n    }\n\n    function buyItem(uint256 id) payable external ItemExists(id) IsForSale(id) HasTransferApproval(itemsForSale[id].tokenAddress, itemsForSale[id].tokenId){\n        require(msg.value >= itemsForSale[id].askingPrice, \"Not enough funds sent\");\n        require(msg.sender != itemsForSale[id].seller);\n\n        itemsForSale[id].isSold = true;\n        activeItems[itemsForSale[id].tokenAddress][itemsForSale[id].tokenId] ==  false;\n        IERC721(itemsForSale[id].tokenAddress).safeTransferFrom(itemsForSale[id].seller, msg.sender, itemsForSale[id].tokenId);\n        itemsForSale[id].seller.transfer(msg.value);\n\n        emit itemSold(id, msg.sender, itemsForSale[id].askingPrice);\n    }\n\n\n\n}",
  "sourcePath": "/Users/ash/Dropbox/Hackathon/coral_playground_nft/contracts/Marketplace.sol",
  "compiler": {
    "name": "solc",
    "version": "0.8.10+commit.fc410830.Emscripten.clang"
  },
  "schemaVersion": "3.4.3",
  "updatedAt": "2021-11-17T00:08:27.825Z",
  "networkType": "ethereum",
  "devdoc": {
    "kind": "dev",
    "methods": {},
    "version": 1
  },
  "userdoc": {
    "kind": "user",
    "methods": {},
    "version": 1
  }
}